{
  "contracts/AgentJury.sol": {
    "AgentJury": {
      "abi": [
        {
          "anonymous": false,
          "inputs": [
            {
              "indexed": true,
              "internalType": "uint256",
              "name": "verdictId",
              "type": "uint256"
            },
            {
              "indexed": false,
              "internalType": "bytes32",
              "name": "caseHash",
              "type": "bytes32"
            },
            {
              "indexed": false,
              "internalType": "uint8",
              "name": "finalScore",
              "type": "uint8"
            },
            {
              "indexed": false,
              "internalType": "string",
              "name": "shortVerdict",
              "type": "string"
            },
            {
              "indexed": true,
              "internalType": "address",
              "name": "submitter",
              "type": "address"
            },
            {
              "indexed": false,
              "internalType": "uint256",
              "name": "timestamp",
              "type": "uint256"
            }
          ],
          "name": "VerdictSaved",
          "type": "event"
        },
        {
          "inputs": [
            {
              "internalType": "uint256",
              "name": "_id",
              "type": "uint256"
            }
          ],
          "name": "getVerdict",
          "outputs": [
            {
              "components": [
                {
                  "internalType": "bytes32",
                  "name": "caseHash",
                  "type": "bytes32"
                },
                {
                  "internalType": "uint8",
                  "name": "feasibilityScore",
                  "type": "uint8"
                },
                {
                  "internalType": "uint8",
                  "name": "innovationScore",
                  "type": "uint8"
                },
                {
                  "internalType": "uint8",
                  "name": "riskScore",
                  "type": "uint8"
                },
                {
                  "internalType": "uint8",
                  "name": "finalScore",
                  "type": "uint8"
                },
                {
                  "internalType": "string",
                  "name": "shortVerdict",
                  "type": "string"
                },
                {
                  "internalType": "address",
                  "name": "submitter",
                  "type": "address"
                },
                {
                  "internalType": "uint256",
                  "name": "timestamp",
                  "type": "uint256"
                }
              ],
              "internalType": "struct AgentJury.Verdict",
              "name": "",
              "type": "tuple"
            }
          ],
          "stateMutability": "view",
          "type": "function"
        },
        {
          "inputs": [
            {
              "internalType": "bytes32",
              "name": "_caseHash",
              "type": "bytes32"
            },
            {
              "internalType": "uint8",
              "name": "_feasibility",
              "type": "uint8"
            },
            {
              "internalType": "uint8",
              "name": "_innovation",
              "type": "uint8"
            },
            {
              "internalType": "uint8",
              "name": "_risk",
              "type": "uint8"
            },
            {
              "internalType": "uint8",
              "name": "_finalScore",
              "type": "uint8"
            },
            {
              "internalType": "string",
              "name": "_shortVerdict",
              "type": "string"
            }
          ],
          "name": "saveVerdict",
          "outputs": [],
          "stateMutability": "nonpayable",
          "type": "function"
        },
        {
          "inputs": [],
          "name": "verdictCount",
          "outputs": [
            {
              "internalType": "uint256",
              "name": "",
              "type": "uint256"
            }
          ],
          "stateMutability": "view",
          "type": "function"
        },
        {
          "inputs": [
            {
              "internalType": "uint256",
              "name": "",
              "type": "uint256"
            }
          ],
          "name": "verdicts",
          "outputs": [
            {
              "internalType": "bytes32",
              "name": "caseHash",
              "type": "bytes32"
            },
            {
              "internalType": "uint8",
              "name": "feasibilityScore",
              "type": "uint8"
            },
            {
              "internalType": "uint8",
              "name": "innovationScore",
              "type": "uint8"
            },
            {
              "internalType": "uint8",
              "name": "riskScore",
              "type": "uint8"
            },
            {
              "internalType": "uint8",
              "name": "finalScore",
              "type": "uint8"
            },
            {
              "internalType": "string",
              "name": "shortVerdict",
              "type": "string"
            },
            {
              "internalType": "address",
              "name": "submitter",
              "type": "address"
            },
            {
              "internalType": "uint256",
              "name": "timestamp",
              "type": "uint256"
            }
          ],
          "stateMutability": "view",
          "type": "function"
        }
      ],
      "evm": {
        "bytecode": {
          "linkReferences": {},
          "object": "608060405234801561001057600080fd5b50611458806100206000396000f3fe608060405234801561001057600080fd5b506004361061004c5760003560e01c806333f3e74b14610051578063395688d8146100815780633e0204fe1461009d57806364a8cbe7146100d4575b600080fd5b61006b6004803603810190610066919061087a565b6100f2565b6040516100789190610a6c565b60405180910390f35b61009b60048036038101906100969190610b4b565b6102d3565b005b6100b760048036038101906100b2919061087a565b6106a6565b6040516100cb989796959493929190610c80565b60405180910390f35b6100dc6107ca565b6040516100e99190610d05565b60405180910390f35b6100fa6107d0565b600154821061013e576040517f08c379a000000000000000000000000000000000000000000000000000000000815260040161013590610d6c565b60405180910390fd5b60008083815260200190815260200160002060405180610100016040529081600082015481526020016001820160009054906101000a900460ff1660ff1660ff1681526020016001820160019054906101000a900460ff1660ff1660ff1681526020016001820160029054906101000a900460ff1660ff1660ff1681526020016001820160039054906101000a900460ff1660ff1660ff1681526020016002820180546101ea90610dbb565b80601f016020809104026020016040519081016040528092919081815260200182805461021690610dbb565b80156102635780601f1061023857610100808354040283529160200191610263565b820191906000526020600020905b81548152906001019060200180831161024657829003601f168201915b505050505081526020016003820160009054906101000a900473ffffffffffffffffffffffffffffffffffffffff1673ffffffffffffffffffffffffffffffffffffffff1673ffffffffffffffffffffffffffffffffffffffff1681526020016004820154815250509050919050565b60648660ff16111561031a576040517f08c379a000000000000000000000000000000000000000000000000000000000815260040161031190610e38565b60405180910390fd5b60648560ff161115610361576040517f08c379a000000000000000000000000000000000000000000000000000000000815260040161035890610ea4565b60405180910390fd5b60648460ff1611156103a8576040517f08c379a000000000000000000000000000000000000000000000000000000000815260040161039f90610f10565b60405180910390fd5b60648360ff1611156103ef576040517f08c379a00000000000000000000000000000000000000000000000000000000081526004016103e690610f7c565b60405180910390fd5b60008282905011610435576040517f08c379a000000000000000000000000000000000000000000000000000000000815260040161042c90610fe8565b60405180910390fd5b608c82829050111561047c576040517f08c379a000000000000000000000000000000000000000000000000000000000815260040161047390611054565b60405180910390fd5b600060015490506040518061010001604052808981526020018860ff1681526020018760ff1681526020018660ff1681526020018560ff16815260200184848080601f016020809104026020016040519081016040528093929190818152602001838380828437600081840152601f19601f8201169050808301925050505050505081526020013373ffffffffffffffffffffffffffffffffffffffff168152602001428152506000808381526020019081526020016000206000820151816000015560208201518160010160006101000a81548160ff021916908360ff16021790555060408201518160010160016101000a81548160ff021916908360ff16021790555060608201518160010160026101000a81548160ff021916908360ff16021790555060808201518160010160036101000a81548160ff021916908360ff16021790555060a08201518160020190816105d8919061124f565b5060c08201518160030160006101000a81548173ffffffffffffffffffffffffffffffffffffffff021916908373ffffffffffffffffffffffffffffffffffffffff16021790555060e082015181600401559050503373ffffffffffffffffffffffffffffffffffffffff16817f655532fc844176b721a640f7eade52bbea541bed60085b034a89017ad3cfa1698a8787874260405161067c95949392919061135d565b60405180910390a360016000815480929190610697906113da565b91905055505050505050505050565b60006020528060005260406000206000915090508060000154908060010160009054906101000a900460ff16908060010160019054906101000a900460ff16908060010160029054906101000a900460ff16908060010160039054906101000a900460ff169080600201805461071b90610dbb565b80601f016020809104026020016040519081016040528092919081815260200182805461074790610dbb565b80156107945780601f1061076957610100808354040283529160200191610794565b820191906000526020600020905b81548152906001019060200180831161077757829003601f168201915b5050505050908060030160009054906101000a900473ffffffffffffffffffffffffffffffffffffffff16908060040154905088565b60015481565b60405180610100016040528060008019168152602001600060ff168152602001600060ff168152602001600060ff168152602001600060ff16815260200160608152602001600073ffffffffffffffffffffffffffffffffffffffff168152602001600081525090565b600080fd5b600080fd5b6000819050919050565b61085781610844565b811461086257600080fd5b50565b6000813590506108748161084e565b92915050565b6000602082840312156108905761088f61083a565b5b600061089e84828501610865565b91505092915050565b6000819050919050565b6108ba816108a7565b82525050565b600060ff82169050919050565b6108d6816108c0565b82525050565b600081519050919050565b600082825260208201905092915050565b60005b838110156109165780820151818401526020810190506108fb565b60008484015250505050565b6000601f19601f8301169050919050565b600061093e826108dc565b61094881856108e7565b93506109588185602086016108f8565b61096181610922565b840191505092915050565b600073ffffffffffffffffffffffffffffffffffffffff82169050919050565b60006109978261096c565b9050919050565b6109a78161098c565b82525050565b6109b681610844565b82525050565b6000610100830160008301516109d560008601826108b1565b5060208301516109e860208601826108cd565b5060408301516109fb60408601826108cd565b506060830151610a0e60608601826108cd565b506080830151610a2160808601826108cd565b5060a083015184820360a0860152610a398282610933565b91505060c0830151610a4e60c086018261099e565b5060e0830151610a6160e08601826109ad565b508091505092915050565b60006020820190508181036000830152610a8681846109bc565b905092915050565b610a97816108a7565b8114610aa257600080fd5b50565b600081359050610ab481610a8e565b92915050565b610ac3816108c0565b8114610ace57600080fd5b50565b600081359050610ae081610aba565b92915050565b600080fd5b600080fd5b600080fd5b60008083601f840112610b0b57610b0a610ae6565b5b8235905067ffffffffffffffff811115610b2857610b27610aeb565b5b602083019150836001820283011115610b4457610b43610af0565b5b9250929050565b600080600080600080600060c0888a031215610b6a57610b6961083a565b5b6000610b788a828b01610aa5565b9750506020610b898a828b01610ad1565b9650506040610b9a8a828b01610ad1565b9550506060610bab8a828b01610ad1565b9450506080610bbc8a828b01610ad1565b93505060a088013567ffffffffffffffff811115610bdd57610bdc61083f565b5b610be98a828b01610af5565b925092505092959891949750929550565b610c03816108a7565b82525050565b610c12816108c0565b82525050565b600082825260208201905092915050565b6000610c34826108dc565b610c3e8185610c18565b9350610c4e8185602086016108f8565b610c5781610922565b840191505092915050565b610c6b8161098c565b82525050565b610c7a81610844565b82525050565b600061010082019050610c96600083018b610bfa565b610ca3602083018a610c09565b610cb06040830189610c09565b610cbd6060830188610c09565b610cca6080830187610c09565b81810360a0830152610cdc8186610c29565b9050610ceb60c0830185610c62565b610cf860e0830184610c71565b9998505050505050505050565b6000602082019050610d1a6000830184610c71565b92915050565b7f5665726469637420646f6573206e6f7420657869737400000000000000000000600082015250565b6000610d56601683610c18565b9150610d6182610d20565b602082019050919050565b60006020820190508181036000830152610d8581610d49565b9050919050565b7f4e487b7100000000000000000000000000000000000000000000000000000000600052602260045260246000fd5b60006002820490506001821680610dd357607f821691505b602082108103610de657610de5610d8c565b5b50919050565b7f466561736962696c6974792073636f7265206d75737420626520302d31303000600082015250565b6000610e22601f83610c18565b9150610e2d82610dec565b602082019050919050565b60006020820190508181036000830152610e5181610e15565b9050919050565b7f496e6e6f766174696f6e2073636f7265206d75737420626520302d3130300000600082015250565b6000610e8e601e83610c18565b9150610e9982610e58565b602082019050919050565b60006020820190508181036000830152610ebd81610e81565b9050919050565b7f5269736b2073636f7265206d75737420626520302d3130300000000000000000600082015250565b6000610efa601883610c18565b9150610f0582610ec4565b602082019050919050565b60006020820190508181036000830152610f2981610eed565b9050919050565b7f46696e616c2073636f7265206d75737420626520302d31303000000000000000600082015250565b6000610f66601983610c18565b9150610f7182610f30565b602082019050919050565b60006020820190508181036000830152610f9581610f59565b9050919050565b7f566572646963742063616e6e6f7420626520656d707479000000000000000000600082015250565b6000610fd2601783610c18565b9150610fdd82610f9c565b602082019050919050565b6000602082019050818103600083015261100181610fc5565b9050919050565b7f5665726469637420746f6f206c6f6e6700000000000000000000000000000000600082015250565b600061103e601083610c18565b915061104982611008565b602082019050919050565b6000602082019050818103600083015261106d81611031565b9050919050565b7f4e487b7100000000000000000000000000000000000000000000000000000000600052604160045260246000fd5b60008190508160005260206000209050919050565b60006020601f8301049050919050565b600082821b905092915050565b6000600883026111057fffffffffffffffffffffffffffffffffffffffffffffffffffffffffffffffff826110c8565b61110f86836110c8565b95508019841693508086168417925050509392505050565b6000819050919050565b600061114c61114761114284610844565b611127565b610844565b9050919050565b6000819050919050565b61116683611131565b61117a61117282611153565b8484546110d5565b825550505050565b600090565b61118f611182565b61119a81848461115d565b505050565b5b818110156111be576111b3600082611187565b6001810190506111a0565b5050565b601f821115611203576111d4816110a3565b6111dd846110b8565b810160208510156111ec578190505b6112006111f8856110b8565b83018261119f565b50505b505050565b600082821c905092915050565b600061122660001984600802611208565b1980831691505092915050565b600061123f8383611215565b9150826002028217905092915050565b611258826108dc565b67ffffffffffffffff81111561127157611270611074565b5b61127b8254610dbb565b6112868282856111c2565b600060209050601f8311600181146112b957600084156112a7578287015190505b6112b18582611233565b865550611319565b601f1984166112c7866110a3565b60005b828110156112ef578489015182556001820191506020850194506020810190506112ca565b8683101561130c5784890151611308601f891682611215565b8355505b6001600288020188555050505b505050505050565b82818337600083830152505050565b600061133c8385610c18565b9350611349838584611321565b61135283610922565b840190509392505050565b60006080820190506113726000830188610bfa565b61137f6020830187610c09565b8181036040830152611392818587611330565b90506113a16060830184610c71565b9695505050505050565b7f4e487b7100000000000000000000000000000000000000000000000000000000600052601160045260246000fd5b60006113e582610844565b91507fffffffffffffffffffffffffffffffffffffffffffffffffffffffffffffffff8203611417576114166113ab565b5b60018201905091905056fea26469706673582212205d497d8f8db6026465ad5df4d88225fbd4bdb7562d96c127f737b860eb63324364736f6c63430008180033",
          "opcodes": "PUSH1 0x80 PUSH1 0x40 MSTORE CALLVALUE DUP1 ISZERO PUSH2 0x10 JUMPI PUSH1 0x0 DUP1 REVERT JUMPDEST POP PUSH2 0x1458 DUP1 PUSH2 0x20 PUSH1 0x0 CODECOPY PUSH1 0x0 RETURN INVALID PUSH1 0x80 PUSH1 0x40 MSTORE CALLVALUE DUP1 ISZERO PUSH2 0x10 JUMPI PUSH1 0x0 DUP1 REVERT JUMPDEST POP PUSH1 0x4 CALLDATASIZE LT PUSH2 0x4C JUMPI PUSH1 0x0 CALLDATALOAD PUSH1 0xE0 SHR DUP1 PUSH4 0x33F3E74B EQ PUSH2 0x51 JUMPI DUP1 PUSH4 0x395688D8 EQ PUSH2 0x81 JUMPI DUP1 PUSH4 0x3E0204FE EQ PUSH2 0x9D JUMPI DUP1 PUSH4 0x64A8CBE7 EQ PUSH2 0xD4 JUMPI JUMPDEST PUSH1 0x0 DUP1 REVERT JUMPDEST PUSH2 0x6B PUSH1 0x4 DUP1 CALLDATASIZE SUB DUP2 ADD SWAP1 PUSH2 0x66 SWAP2 SWAP1 PUSH2 0x87A JUMP JUMPDEST PUSH2 0xF2 JUMP JUMPDEST PUSH1 0x40 MLOAD PUSH2 0x78 SWAP2 SWAP1 PUSH2 0xA6C JUMP JUMPDEST PUSH1 0x40 MLOAD DUP1 SWAP2 SUB SWAP1 RETURN JUMPDEST PUSH2 0x9B PUSH1 0x4 DUP1 CALLDATASIZE SUB DUP2 ADD SWAP1 PUSH2 0x96 SWAP2 SWAP1 PUSH2 0xB4B JUMP JUMPDEST PUSH2 0x2D3 JUMP JUMPDEST STOP JUMPDEST PUSH2 0xB7 PUSH1 0x4 DUP1 CALLDATASIZE SUB DUP2 ADD SWAP1 PUSH2 0xB2 SWAP2 SWAP1 PUSH2 0x87A JUMP JUMPDEST PUSH2 0x6A6 JUMP JUMPDEST PUSH1 0x40 MLOAD PUSH2 0xCB SWAP9 SWAP8 SWAP7 SWAP6 SWAP5 SWAP4 SWAP3 SWAP2 SWAP1 PUSH2 0xC80 JUMP JUMPDEST PUSH1 0x40 MLOAD DUP1 SWAP2 SUB SWAP1 RETURN JUMPDEST PUSH2 0xDC PUSH2 0x7CA JUMP JUMPDEST PUSH1 0x40 MLOAD PUSH2 0xE9 SWAP2 SWAP1 PUSH2 0xD05 JUMP JUMPDEST PUSH1 0x40 MLOAD DUP1 SWAP2 SUB SWAP1 RETURN JUMPDEST PUSH2 0xFA PUSH2 0x7D0 JUMP JUMPDEST PUSH1 0x1 SLOAD DUP3 LT PUSH2 0x13E JUMPI PUSH1 0x40 MLOAD PUSH32 0x8C379A000000000000000000000000000000000000000000000000000000000 DUP2 MSTORE PUSH1 0x4 ADD PUSH2 0x135 SWAP1 PUSH2 0xD6C JUMP JUMPDEST PUSH1 0x40 MLOAD DUP1 SWAP2 SUB SWAP1 REVERT JUMPDEST PUSH1 0x0 DUP1 DUP4 DUP2 MSTORE PUSH1 0x20 ADD SWAP1 DUP2 MSTORE PUSH1 0x20 ADD PUSH1 0x0 KECCAK256 PUSH1 0x40 MLOAD DUP1 PUSH2 0x100 ADD PUSH1 0x40 MSTORE SWAP1 DUP2 PUSH1 0x0 DUP3 ADD SLOAD DUP2 MSTORE PUSH1 0x20 ADD PUSH1 0x1 DUP3 ADD PUSH1 0x0 SWAP1 SLOAD SWAP1 PUSH2 0x100 EXP SWAP1 DIV PUSH1 0xFF AND PUSH1 0xFF AND PUSH1 0xFF AND DUP2 MSTORE PUSH1 0x20 ADD PUSH1 0x1 DUP3 ADD PUSH1 0x1 SWAP1 SLOAD SWAP1 PUSH2 0x100 EXP SWAP1 DIV PUSH1 0xFF AND PUSH1 0xFF AND PUSH1 0xFF AND DUP2 MSTORE PUSH1 0x20 ADD PUSH1 0x1 DUP3 ADD PUSH1 0x2 SWAP1 SLOAD SWAP1 PUSH2 0x100 EXP SWAP1 DIV PUSH1 0xFF AND PUSH1 0xFF AND PUSH1 0xFF AND DUP2 MSTORE PUSH1 0x20 ADD PUSH1 0x1 DUP3 ADD PUSH1 0x3 SWAP1 SLOAD SWAP1 PUSH2 0x100 EXP SWAP1 DIV PUSH1 0xFF AND PUSH1 0xFF AND PUSH1 0xFF AND DUP2 MSTORE PUSH1 0x20 ADD PUSH1 0x2 DUP3 ADD DUP1 SLOAD PUSH2 0x1EA SWAP1 PUSH2 0xDBB JUMP JUMPDEST DUP1 PUSH1 0x1F ADD PUSH1 0x20 DUP1 SWAP2 DIV MUL PUSH1 0x20 ADD PUSH1 0x40 MLOAD SWAP1 DUP2 ADD PUSH1 0x40 MSTORE DUP1 SWAP3 SWAP2 SWAP1 DUP2 DUP2 MSTORE PUSH1 0x20 ADD DUP3 DUP1 SLOAD PUSH2 0x216 SWAP1 PUSH2 0xDBB JUMP JUMPDEST DUP1 ISZERO PUSH2 0x263 JUMPI DUP1 PUSH1 0x1F LT PUSH2 0x238 JUMPI PUSH2 0x100 DUP1 DUP4 SLOAD DIV MUL DUP4 MSTORE SWAP2 PUSH1 0x20 ADD SWAP2 PUSH2 0x263 JUMP JUMPDEST DUP3 ADD SWAP2 SWAP1 PUSH1 0x0 MSTORE PUSH1 0x20 PUSH1 0x0 KECCAK256 SWAP1 JUMPDEST DUP2 SLOAD DUP2 MSTORE SWAP1 PUSH1 0x1 ADD SWAP1 PUSH1 0x20 ADD DUP1 DUP4 GT PUSH2 0x246 JUMPI DUP3 SWAP1 SUB PUSH1 0x1F AND DUP3 ADD SWAP2 JUMPDEST POP POP POP POP POP DUP2 MSTORE PUSH1 0x20 ADD PUSH1 0x3 DUP3 ADD PUSH1 0x0 SWAP1 SLOAD SWAP1 PUSH2 0x100 EXP SWAP1 DIV PUSH20 0xFFFFFFFFFFFFFFFFFFFFFFFFFFFFFFFFFFFFFFFF AND PUSH20 0xFFFFFFFFFFFFFFFFFFFFFFFFFFFFFFFFFFFFFFFF AND PUSH20 0xFFFFFFFFFFFFFFFFFFFFFFFFFFFFFFFFFFFFFFFF AND DUP2 MSTORE PUSH1 0x20 ADD PUSH1 0x4 DUP3 ADD SLOAD DUP2 MSTORE POP POP SWAP1 POP SWAP2 SWAP1 POP JUMP JUMPDEST PUSH1 0x64 DUP7 PUSH1 0xFF AND GT ISZERO PUSH2 0x31A JUMPI PUSH1 0x40 MLOAD PUSH32 0x8C379A000000000000000000000000000000000000000000000000000000000 DUP2 MSTORE PUSH1 0x4 ADD PUSH2 0x311 SWAP1 PUSH2 0xE38 JUMP JUMPDEST PUSH1 0x40 MLOAD DUP1 SWAP2 SUB SWAP1 REVERT JUMPDEST PUSH1 0x64 DUP6 PUSH1 0xFF AND GT ISZERO PUSH2 0x361 JUMPI PUSH1 0x40 MLOAD PUSH32 0x8C379A000000000000000000000000000000000000000000000000000000000 DUP2 MSTORE PUSH1 0x4 ADD PUSH2 0x358 SWAP1 PUSH2 0xEA4 JUMP JUMPDEST PUSH1 0x40 MLOAD DUP1 SWAP2 SUB SWAP1 REVERT JUMPDEST PUSH1 0x64 DUP5 PUSH1 0xFF AND GT ISZERO PUSH2 0x3A8 JUMPI PUSH1 0x40 MLOAD PUSH32 0x8C379A000000000000000000000000000000000000000000000000000000000 DUP2 MSTORE PUSH1 0x4 ADD PUSH2 0x39F SWAP1 PUSH2 0xF10 JUMP JUMPDEST PUSH1 0x40 MLOAD DUP1 SWAP2 SUB SWAP1 REVERT JUMPDEST PUSH1 0x64 DUP4 PUSH1 0xFF AND GT ISZERO PUSH2 0x3EF JUMPI PUSH1 0x40 MLOAD PUSH32 0x8C379A000000000000000000000000000000000000000000000000000000000 DUP2 MSTORE PUSH1 0x4 ADD PUSH2 0x3E6 SWAP1 PUSH2 0xF7C JUMP JUMPDEST PUSH1 0x40 MLOAD DUP1 SWAP2 SUB SWAP1 REVERT JUMPDEST PUSH1 0x0 DUP3 DUP3 SWAP1 POP GT PUSH2 0x435 JUMPI PUSH1 0x40 MLOAD PUSH32 0x8C379A000000000000000000000000000000000000000000000000000000000 DUP2 MSTORE PUSH1 0x4 ADD PUSH2 0x42C SWAP1 PUSH2 0xFE8 JUMP JUMPDEST PUSH1 0x40 MLOAD DUP1 SWAP2 SUB SWAP1 REVERT JUMPDEST PUSH1 0x8C DUP3 DUP3 SWAP1 POP GT ISZERO PUSH2 0x47C JUMPI PUSH1 0x40 MLOAD PUSH32 0x8C379A000000000000000000000000000000000000000000000000000000000 DUP2 MSTORE PUSH1 0x4 ADD PUSH2 0x473 SWAP1 PUSH2 0x1054 JUMP JUMPDEST PUSH1 0x40 MLOAD DUP1 SWAP2 SUB SWAP1 REVERT JUMPDEST PUSH1 0x0 PUSH1 0x1 SLOAD SWAP1 POP PUSH1 0x40 MLOAD DUP1 PUSH2 0x100 ADD PUSH1 0x40 MSTORE DUP1 DUP10 DUP2 MSTORE PUSH1 0x20 ADD DUP9 PUSH1 0xFF AND DUP2 MSTORE PUSH1 0x20 ADD DUP8 PUSH1 0xFF AND DUP2 MSTORE PUSH1 0x20 ADD DUP7 PUSH1 0xFF AND DUP2 MSTORE PUSH1 0x20 ADD DUP6 PUSH1 0xFF AND DUP2 MSTORE PUSH1 0x20 ADD DUP5 DUP5 DUP1 DUP1 PUSH1 0x1F ADD PUSH1 0x20 DUP1 SWAP2 DIV MUL PUSH1 0x20 ADD PUSH1 0x40 MLOAD SWAP1 DUP2 ADD PUSH1 0x40 MSTORE DUP1 SWAP4 SWAP3 SWAP2 SWAP1 DUP2 DUP2 MSTORE PUSH1 0x20 ADD DUP4 DUP4 DUP1 DUP3 DUP5 CALLDATACOPY PUSH1 0x0 DUP2 DUP5 ADD MSTORE PUSH1 0x1F NOT PUSH1 0x1F DUP3 ADD AND SWAP1 POP DUP1 DUP4 ADD SWAP3 POP POP POP POP POP POP POP DUP2 MSTORE PUSH1 0x20 ADD CALLER PUSH20 0xFFFFFFFFFFFFFFFFFFFFFFFFFFFFFFFFFFFFFFFF AND DUP2 MSTORE PUSH1 0x20 ADD TIMESTAMP DUP2 MSTORE POP PUSH1 0x0 DUP1 DUP4 DUP2 MSTORE PUSH1 0x20 ADD SWAP1 DUP2 MSTORE PUSH1 0x20 ADD PUSH1 0x0 KECCAK256 PUSH1 0x0 DUP3 ADD MLOAD DUP2 PUSH1 0x0 ADD SSTORE PUSH1 0x20 DUP3 ADD MLOAD DUP2 PUSH1 0x1 ADD PUSH1 0x0 PUSH2 0x100 EXP DUP2 SLOAD DUP2 PUSH1 0xFF MUL NOT AND SWAP1 DUP4 PUSH1 0xFF AND MUL OR SWAP1 SSTORE POP PUSH1 0x40 DUP3 ADD MLOAD DUP2 PUSH1 0x1 ADD PUSH1 0x1 PUSH2 0x100 EXP DUP2 SLOAD DUP2 PUSH1 0xFF MUL NOT AND SWAP1 DUP4 PUSH1 0xFF AND MUL OR SWAP1 SSTORE POP PUSH1 0x60 DUP3 ADD MLOAD DUP2 PUSH1 0x1 ADD PUSH1 0x2 PUSH2 0x100 EXP DUP2 SLOAD DUP2 PUSH1 0xFF MUL NOT AND SWAP1 DUP4 PUSH1 0xFF AND MUL OR SWAP1 SSTORE POP PUSH1 0x80 DUP3 ADD MLOAD DUP2 PUSH1 0x1 ADD PUSH1 0x3 PUSH2 0x100 EXP DUP2 SLOAD DUP2 PUSH1 0xFF MUL NOT AND SWAP1 DUP4 PUSH1 0xFF AND MUL OR SWAP1 SSTORE POP PUSH1 0xA0 DUP3 ADD MLOAD DUP2 PUSH1 0x2 ADD SWAP1 DUP2 PUSH2 0x5D8 SWAP2 SWAP1 PUSH2 0x124F JUMP JUMPDEST POP PUSH1 0xC0 DUP3 ADD MLOAD DUP2 PUSH1 0x3 ADD PUSH1 0x0 PUSH2 0x100 EXP DUP2 SLOAD DUP2 PUSH20 0xFFFFFFFFFFFFFFFFFFFFFFFFFFFFFFFFFFFFFFFF MUL NOT AND SWAP1 DUP4 PUSH20 0xFFFFFFFFFFFFFFFFFFFFFFFFFFFFFFFFFFFFFFFF AND MUL OR SWAP1 SSTORE POP PUSH1 0xE0 DUP3 ADD MLOAD DUP2 PUSH1 0x4 ADD SSTORE SWAP1 POP POP CALLER PUSH20 0xFFFFFFFFFFFFFFFFFFFFFFFFFFFFFFFFFFFFFFFF AND DUP2 PUSH32 0x655532FC844176B721A640F7EADE52BBEA541BED60085B034A89017AD3CFA169 DUP11 DUP8 DUP8 DUP8 TIMESTAMP PUSH1 0x40 MLOAD PUSH2 0x67C SWAP6 SWAP5 SWAP4 SWAP3 SWAP2 SWAP1 PUSH2 0x135D JUMP JUMPDEST PUSH1 0x40 MLOAD DUP1 SWAP2 SUB SWAP1 LOG3 PUSH1 0x1 PUSH1 0x0 DUP2 SLOAD DUP1 SWAP3 SWAP2 SWAP1 PUSH2 0x697 SWAP1 PUSH2 0x13DA JUMP JUMPDEST SWAP2 SWAP1 POP SSTORE POP POP POP POP POP POP POP POP POP JUMP JUMPDEST PUSH1 0x0 PUSH1 0x20 MSTORE DUP1 PUSH1 0x0 MSTORE PUSH1 0x40 PUSH1 0x0 KECCAK256 PUSH1 0x0 SWAP2 POP SWAP1 POP DUP1 PUSH1 0x0 ADD SLOAD SWAP1 DUP1 PUSH1 0x1 ADD PUSH1 0x0 SWAP1 SLOAD SWAP1 PUSH2 0x100 EXP SWAP1 DIV PUSH1 0xFF AND SWAP1 DUP1 PUSH1 0x1 ADD PUSH1 0x1 SWAP1 SLOAD SWAP1 PUSH2 0x100 EXP SWAP1 DIV PUSH1 0xFF AND SWAP1 DUP1 PUSH1 0x1 ADD PUSH1 0x2 SWAP1 SLOAD SWAP1 PUSH2 0x100 EXP SWAP1 DIV PUSH1 0xFF AND SWAP1 DUP1 PUSH1 0x1 ADD PUSH1 0x3 SWAP1 SLOAD SWAP1 PUSH2 0x100 EXP SWAP1 DIV PUSH1 0xFF AND SWAP1 DUP1 PUSH1 0x2 ADD DUP1 SLOAD PUSH2 0x71B SWAP1 PUSH2 0xDBB JUMP JUMPDEST DUP1 PUSH1 0x1F ADD PUSH1 0x20 DUP1 SWAP2 DIV MUL PUSH1 0x20 ADD PUSH1 0x40 MLOAD SWAP1 DUP2 ADD PUSH1 0x40 MSTORE DUP1 SWAP3 SWAP2 SWAP1 DUP2 DUP2 MSTORE PUSH1 0x20 ADD DUP3 DUP1 SLOAD PUSH2 0x747 SWAP1 PUSH2 0xDBB JUMP JUMPDEST DUP1 ISZERO PUSH2 0x794 JUMPI DUP1 PUSH1 0x1F LT PUSH2 0x769 JUMPI PUSH2 0x100 DUP1 DUP4 SLOAD DIV MUL DUP4 MSTORE SWAP2 PUSH1 0x20 ADD SWAP2 PUSH2 0x794 JUMP JUMPDEST DUP3 ADD SWAP2 SWAP1 PUSH1 0x0 MSTORE PUSH1 0x20 PUSH1 0x0 KECCAK256 SWAP1 JUMPDEST DUP2 SLOAD DUP2 MSTORE SWAP1 PUSH1 0x1 ADD SWAP1 PUSH1 0x20 ADD DUP1 DUP4 GT PUSH2 0x777 JUMPI DUP3 SWAP1 SUB PUSH1 0x1F AND DUP3 ADD SWAP2 JUMPDEST POP POP POP POP POP SWAP1 DUP1 PUSH1 0x3 ADD PUSH1 0x0 SWAP1 SLOAD SWAP1 PUSH2 0x100 EXP SWAP1 DIV PUSH20 0xFFFFFFFFFFFFFFFFFFFFFFFFFFFFFFFFFFFFFFFF AND SWAP1 DUP1 PUSH1 0x4 ADD SLOAD SWAP1 POP DUP9 JUMP JUMPDEST PUSH1 0x1 SLOAD DUP2 JUMP JUMPDEST PUSH1 0x40 MLOAD DUP1 PUSH2 0x100 ADD PUSH1 0x40 MSTORE DUP1 PUSH1 0x0 DUP1 NOT AND DUP2 MSTORE PUSH1 0x20 ADD PUSH1 0x0 PUSH1 0xFF AND DUP2 MSTORE PUSH1 0x20 ADD PUSH1 0x0 PUSH1 0xFF AND DUP2 MSTORE PUSH1 0x20 ADD PUSH1 0x0 PUSH1 0xFF AND DUP2 MSTORE PUSH1 0x20 ADD PUSH1 0x0 PUSH1 0xFF AND DUP2 MSTORE PUSH1 0x20 ADD PUSH1 0x60 DUP2 MSTORE PUSH1 0x20 ADD PUSH1 0x0 PUSH20 0xFFFFFFFFFFFFFFFFFFFFFFFFFFFFFFFFFFFFFFFF AND DUP2 MSTORE PUSH1 0x20 ADD PUSH1 0x0 DUP2 MSTORE POP SWAP1 JUMP JUMPDEST PUSH1 0x0 DUP1 REVERT JUMPDEST PUSH1 0x0 DUP1 REVERT JUMPDEST PUSH1 0x0 DUP2 SWAP1 POP SWAP2 SWAP1 POP JUMP JUMPDEST PUSH2 0x857 DUP2 PUSH2 0x844 JUMP JUMPDEST DUP2 EQ PUSH2 0x862 JUMPI PUSH1 0x0 DUP1 REVERT JUMPDEST POP JUMP JUMPDEST PUSH1 0x0 DUP2 CALLDATALOAD SWAP1 POP PUSH2 0x874 DUP2 PUSH2 0x84E JUMP JUMPDEST SWAP3 SWAP2 POP POP JUMP JUMPDEST PUSH1 0x0 PUSH1 0x20 DUP3 DUP5 SUB SLT ISZERO PUSH2 0x890 JUMPI PUSH2 0x88F PUSH2 0x83A JUMP JUMPDEST JUMPDEST PUSH1 0x0 PUSH2 0x89E DUP5 DUP3 DUP6 ADD PUSH2 0x865 JUMP JUMPDEST SWAP2 POP POP SWAP3 SWAP2 POP POP JUMP JUMPDEST PUSH1 0x0 DUP2 SWAP1 POP SWAP2 SWAP1 POP JUMP JUMPDEST PUSH2 0x8BA DUP2 PUSH2 0x8A7 JUMP JUMPDEST DUP3 MSTORE POP POP JUMP JUMPDEST PUSH1 0x0 PUSH1 0xFF DUP3 AND SWAP1 POP SWAP2 SWAP1 POP JUMP JUMPDEST PUSH2 0x8D6 DUP2 PUSH2 0x8C0 JUMP JUMPDEST DUP3 MSTORE POP POP JUMP JUMPDEST PUSH1 0x0 DUP2 MLOAD SWAP1 POP SWAP2 SWAP1 POP JUMP JUMPDEST PUSH1 0x0 DUP3 DUP3 MSTORE PUSH1 0x20 DUP3 ADD SWAP1 POP SWAP3 SWAP2 POP POP JUMP JUMPDEST PUSH1 0x0 JUMPDEST DUP4 DUP2 LT ISZERO PUSH2 0x916 JUMPI DUP1 DUP3 ADD MLOAD DUP2 DUP5 ADD MSTORE PUSH1 0x20 DUP2 ADD SWAP1 POP PUSH2 0x8FB JUMP JUMPDEST PUSH1 0x0 DUP5 DUP5 ADD MSTORE POP POP POP POP JUMP JUMPDEST PUSH1 0x0 PUSH1 0x1F NOT PUSH1 0x1F DUP4 ADD AND SWAP1 POP SWAP2 SWAP1 POP JUMP JUMPDEST PUSH1 0x0 PUSH2 0x93E DUP3 PUSH2 0x8DC JUMP JUMPDEST PUSH2 0x948 DUP2 DUP6 PUSH2 0x8E7 JUMP JUMPDEST SWAP4 POP PUSH2 0x958 DUP2 DUP6 PUSH1 0x20 DUP7 ADD PUSH2 0x8F8 JUMP JUMPDEST PUSH2 0x961 DUP2 PUSH2 0x922 JUMP JUMPDEST DUP5 ADD SWAP2 POP POP SWAP3 SWAP2 POP POP JUMP JUMPDEST PUSH1 0x0 PUSH20 0xFFFFFFFFFFFFFFFFFFFFFFFFFFFFFFFFFFFFFFFF DUP3 AND SWAP1 POP SWAP2 SWAP1 POP JUMP JUMPDEST PUSH1 0x0 PUSH2 0x997 DUP3 PUSH2 0x96C JUMP JUMPDEST SWAP1 POP SWAP2 SWAP1 POP JUMP JUMPDEST PUSH2 0x9A7 DUP2 PUSH2 0x98C JUMP JUMPDEST DUP3 MSTORE POP POP JUMP JUMPDEST PUSH2 0x9B6 DUP2 PUSH2 0x844 JUMP JUMPDEST DUP3 MSTORE POP POP JUMP JUMPDEST PUSH1 0x0 PUSH2 0x100 DUP4 ADD PUSH1 0x0 DUP4 ADD MLOAD PUSH2 0x9D5 PUSH1 0x0 DUP7 ADD DUP3 PUSH2 0x8B1 JUMP JUMPDEST POP PUSH1 0x20 DUP4 ADD MLOAD PUSH2 0x9E8 PUSH1 0x20 DUP7 ADD DUP3 PUSH2 0x8CD JUMP JUMPDEST POP PUSH1 0x40 DUP4 ADD MLOAD PUSH2 0x9FB PUSH1 0x40 DUP7 ADD DUP3 PUSH2 0x8CD JUMP JUMPDEST POP PUSH1 0x60 DUP4 ADD MLOAD PUSH2 0xA0E PUSH1 0x60 DUP7 ADD DUP3 PUSH2 0x8CD JUMP JUMPDEST POP PUSH1 0x80 DUP4 ADD MLOAD PUSH2 0xA21 PUSH1 0x80 DUP7 ADD DUP3 PUSH2 0x8CD JUMP JUMPDEST POP PUSH1 0xA0 DUP4 ADD MLOAD DUP5 DUP3 SUB PUSH1 0xA0 DUP7 ADD MSTORE PUSH2 0xA39 DUP3 DUP3 PUSH2 0x933 JUMP JUMPDEST SWAP2 POP POP PUSH1 0xC0 DUP4 ADD MLOAD PUSH2 0xA4E PUSH1 0xC0 DUP7 ADD DUP3 PUSH2 0x99E JUMP JUMPDEST POP PUSH1 0xE0 DUP4 ADD MLOAD PUSH2 0xA61 PUSH1 0xE0 DUP7 ADD DUP3 PUSH2 0x9AD JUMP JUMPDEST POP DUP1 SWAP2 POP POP SWAP3 SWAP2 POP POP JUMP JUMPDEST PUSH1 0x0 PUSH1 0x20 DUP3 ADD SWAP1 POP DUP2 DUP2 SUB PUSH1 0x0 DUP4 ADD MSTORE PUSH2 0xA86 DUP2 DUP5 PUSH2 0x9BC JUMP JUMPDEST SWAP1 POP SWAP3 SWAP2 POP POP JUMP JUMPDEST PUSH2 0xA97 DUP2 PUSH2 0x8A7 JUMP JUMPDEST DUP2 EQ PUSH2 0xAA2 JUMPI PUSH1 0x0 DUP1 REVERT JUMPDEST POP JUMP JUMPDEST PUSH1 0x0 DUP2 CALLDATALOAD SWAP1 POP PUSH2 0xAB4 DUP2 PUSH2 0xA8E JUMP JUMPDEST SWAP3 SWAP2 POP POP JUMP JUMPDEST PUSH2 0xAC3 DUP2 PUSH2 0x8C0 JUMP JUMPDEST DUP2 EQ PUSH2 0xACE JUMPI PUSH1 0x0 DUP1 REVERT JUMPDEST POP JUMP JUMPDEST PUSH1 0x0 DUP2 CALLDATALOAD SWAP1 POP PUSH2 0xAE0 DUP2 PUSH2 0xABA JUMP JUMPDEST SWAP3 SWAP2 POP POP JUMP JUMPDEST PUSH1 0x0 DUP1 REVERT JUMPDEST PUSH1 0x0 DUP1 REVERT JUMPDEST PUSH1 0x0 DUP1 REVERT JUMPDEST PUSH1 0x0 DUP1 DUP4 PUSH1 0x1F DUP5 ADD SLT PUSH2 0xB0B JUMPI PUSH2 0xB0A PUSH2 0xAE6 JUMP JUMPDEST JUMPDEST DUP3 CALLDATALOAD SWAP1 POP PUSH8 0xFFFFFFFFFFFFFFFF DUP2 GT ISZERO PUSH2 0xB28 JUMPI PUSH2 0xB27 PUSH2 0xAEB JUMP JUMPDEST JUMPDEST PUSH1 0x20 DUP4 ADD SWAP2 POP DUP4 PUSH1 0x1 DUP3 MUL DUP4 ADD GT ISZERO PUSH2 0xB44 JUMPI PUSH2 0xB43 PUSH2 0xAF0 JUMP JUMPDEST JUMPDEST SWAP3 POP SWAP3 SWAP1 POP JUMP JUMPDEST PUSH1 0x0 DUP1 PUSH1 0x0 DUP1 PUSH1 0x0 DUP1 PUSH1 0x0 PUSH1 0xC0 DUP9 DUP11 SUB SLT ISZERO PUSH2 0xB6A JUMPI PUSH2 0xB69 PUSH2 0x83A JUMP JUMPDEST JUMPDEST PUSH1 0x0 PUSH2 0xB78 DUP11 DUP3 DUP12 ADD PUSH2 0xAA5 JUMP JUMPDEST SWAP8 POP POP PUSH1 0x20 PUSH2 0xB89 DUP11 DUP3 DUP12 ADD PUSH2 0xAD1 JUMP JUMPDEST SWAP7 POP POP PUSH1 0x40 PUSH2 0xB9A DUP11 DUP3 DUP12 ADD PUSH2 0xAD1 JUMP JUMPDEST SWAP6 POP POP PUSH1 0x60 PUSH2 0xBAB DUP11 DUP3 DUP12 ADD PUSH2 0xAD1 JUMP JUMPDEST SWAP5 POP POP PUSH1 0x80 PUSH2 0xBBC DUP11 DUP3 DUP12 ADD PUSH2 0xAD1 JUMP JUMPDEST SWAP4 POP POP PUSH1 0xA0 DUP9 ADD CALLDATALOAD PUSH8 0xFFFFFFFFFFFFFFFF DUP2 GT ISZERO PUSH2 0xBDD JUMPI PUSH2 0xBDC PUSH2 0x83F JUMP JUMPDEST JUMPDEST PUSH2 0xBE9 DUP11 DUP3 DUP12 ADD PUSH2 0xAF5 JUMP JUMPDEST SWAP3 POP SWAP3 POP POP SWAP3 SWAP6 SWAP9 SWAP2 SWAP5 SWAP8 POP SWAP3 SWAP6 POP JUMP JUMPDEST PUSH2 0xC03 DUP2 PUSH2 0x8A7 JUMP JUMPDEST DUP3 MSTORE POP POP JUMP JUMPDEST PUSH2 0xC12 DUP2 PUSH2 0x8C0 JUMP JUMPDEST DUP3 MSTORE POP POP JUMP JUMPDEST PUSH1 0x0 DUP3 DUP3 MSTORE PUSH1 0x20 DUP3 ADD SWAP1 POP SWAP3 SWAP2 POP POP JUMP JUMPDEST PUSH1 0x0 PUSH2 0xC34 DUP3 PUSH2 0x8DC JUMP JUMPDEST PUSH2 0xC3E DUP2 DUP6 PUSH2 0xC18 JUMP JUMPDEST SWAP4 POP PUSH2 0xC4E DUP2 DUP6 PUSH1 0x20 DUP7 ADD PUSH2 0x8F8 JUMP JUMPDEST PUSH2 0xC57 DUP2 PUSH2 0x922 JUMP JUMPDEST DUP5 ADD SWAP2 POP POP SWAP3 SWAP2 POP POP JUMP JUMPDEST PUSH2 0xC6B DUP2 PUSH2 0x98C JUMP JUMPDEST DUP3 MSTORE POP POP JUMP JUMPDEST PUSH2 0xC7A DUP2 PUSH2 0x844 JUMP JUMPDEST DUP3 MSTORE POP POP JUMP JUMPDEST PUSH1 0x0 PUSH2 0x100 DUP3 ADD SWAP1 POP PUSH2 0xC96 PUSH1 0x0 DUP4 ADD DUP12 PUSH2 0xBFA JUMP JUMPDEST PUSH2 0xCA3 PUSH1 0x20 DUP4 ADD DUP11 PUSH2 0xC09 JUMP JUMPDEST PUSH2 0xCB0 PUSH1 0x40 DUP4 ADD DUP10 PUSH2 0xC09 JUMP JUMPDEST PUSH2 0xCBD PUSH1 0x60 DUP4 ADD DUP9 PUSH2 0xC09 JUMP JUMPDEST PUSH2 0xCCA PUSH1 0x80 DUP4 ADD DUP8 PUSH2 0xC09 JUMP JUMPDEST DUP2 DUP2 SUB PUSH1 0xA0 DUP4 ADD MSTORE PUSH2 0xCDC DUP2 DUP7 PUSH2 0xC29 JUMP JUMPDEST SWAP1 POP PUSH2 0xCEB PUSH1 0xC0 DUP4 ADD DUP6 PUSH2 0xC62 JUMP JUMPDEST PUSH2 0xCF8 PUSH1 0xE0 DUP4 ADD DUP5 PUSH2 0xC71 JUMP JUMPDEST SWAP10 SWAP9 POP POP POP POP POP POP POP POP POP JUMP JUMPDEST PUSH1 0x0 PUSH1 0x20 DUP3 ADD SWAP1 POP PUSH2 0xD1A PUSH1 0x0 DUP4 ADD DUP5 PUSH2 0xC71 JUMP JUMPDEST SWAP3 SWAP2 POP POP JUMP JUMPDEST PUSH32 0x5665726469637420646F6573206E6F7420657869737400000000000000000000 PUSH1 0x0 DUP3 ADD MSTORE POP JUMP JUMPDEST PUSH1 0x0 PUSH2 0xD56 PUSH1 0x16 DUP4 PUSH2 0xC18 JUMP JUMPDEST SWAP2 POP PUSH2 0xD61 DUP3 PUSH2 0xD20 JUMP JUMPDEST PUSH1 0x20 DUP3 ADD SWAP1 POP SWAP2 SWAP1 POP JUMP JUMPDEST PUSH1 0x0 PUSH1 0x20 DUP3 ADD SWAP1 POP DUP2 DUP2 SUB PUSH1 0x0 DUP4 ADD MSTORE PUSH2 0xD85 DUP2 PUSH2 0xD49 JUMP JUMPDEST SWAP1 POP SWAP2 SWAP1 POP JUMP JUMPDEST PUSH32 0x4E487B7100000000000000000000000000000000000000000000000000000000 PUSH1 0x0 MSTORE PUSH1 0x22 PUSH1 0x4 MSTORE PUSH1 0x24 PUSH1 0x0 REVERT JUMPDEST PUSH1 0x0 PUSH1 0x2 DUP3 DIV SWAP1 POP PUSH1 0x1 DUP3 AND DUP1 PUSH2 0xDD3 JUMPI PUSH1 0x7F DUP3 AND SWAP2 POP JUMPDEST PUSH1 0x20 DUP3 LT DUP2 SUB PUSH2 0xDE6 JUMPI PUSH2 0xDE5 PUSH2 0xD8C JUMP JUMPDEST JUMPDEST POP SWAP2 SWAP1 POP JUMP JUMPDEST PUSH32 0x466561736962696C6974792073636F7265206D75737420626520302D31303000 PUSH1 0x0 DUP3 ADD MSTORE POP JUMP JUMPDEST PUSH1 0x0 PUSH2 0xE22 PUSH1 0x1F DUP4 PUSH2 0xC18 JUMP JUMPDEST SWAP2 POP PUSH2 0xE2D DUP3 PUSH2 0xDEC JUMP JUMPDEST PUSH1 0x20 DUP3 ADD SWAP1 POP SWAP2 SWAP1 POP JUMP JUMPDEST PUSH1 0x0 PUSH1 0x20 DUP3 ADD SWAP1 POP DUP2 DUP2 SUB PUSH1 0x0 DUP4 ADD MSTORE PUSH2 0xE51 DUP2 PUSH2 0xE15 JUMP JUMPDEST SWAP1 POP SWAP2 SWAP1 POP JUMP JUMPDEST PUSH32 0x496E6E6F766174696F6E2073636F7265206D75737420626520302D3130300000 PUSH1 0x0 DUP3 ADD MSTORE POP JUMP JUMPDEST PUSH1 0x0 PUSH2 0xE8E PUSH1 0x1E DUP4 PUSH2 0xC18 JUMP JUMPDEST SWAP2 POP PUSH2 0xE99 DUP3 PUSH2 0xE58 JUMP JUMPDEST PUSH1 0x20 DUP3 ADD SWAP1 POP SWAP2 SWAP1 POP JUMP JUMPDEST PUSH1 0x0 PUSH1 0x20 DUP3 ADD SWAP1 POP DUP2 DUP2 SUB PUSH1 0x0 DUP4 ADD MSTORE PUSH2 0xEBD DUP2 PUSH2 0xE81 JUMP JUMPDEST SWAP1 POP SWAP2 SWAP1 POP JUMP JUMPDEST PUSH32 0x5269736B2073636F7265206D75737420626520302D3130300000000000000000 PUSH1 0x0 DUP3 ADD MSTORE POP JUMP JUMPDEST PUSH1 0x0 PUSH2 0xEFA PUSH1 0x18 DUP4 PUSH2 0xC18 JUMP JUMPDEST SWAP2 POP PUSH2 0xF05 DUP3 PUSH2 0xEC4 JUMP JUMPDEST PUSH1 0x20 DUP3 ADD SWAP1 POP SWAP2 SWAP1 POP JUMP JUMPDEST PUSH1 0x0 PUSH1 0x20 DUP3 ADD SWAP1 POP DUP2 DUP2 SUB PUSH1 0x0 DUP4 ADD MSTORE PUSH2 0xF29 DUP2 PUSH2 0xEED JUMP JUMPDEST SWAP1 POP SWAP2 SWAP1 POP JUMP JUMPDEST PUSH32 0x46696E616C2073636F7265206D75737420626520302D31303000000000000000 PUSH1 0x0 DUP3 ADD MSTORE POP JUMP JUMPDEST PUSH1 0x0 PUSH2 0xF66 PUSH1 0x19 DUP4 PUSH2 0xC18 JUMP JUMPDEST SWAP2 POP PUSH2 0xF71 DUP3 PUSH2 0xF30 JUMP JUMPDEST PUSH1 0x20 DUP3 ADD SWAP1 POP SWAP2 SWAP1 POP JUMP JUMPDEST PUSH1 0x0 PUSH1 0x20 DUP3 ADD SWAP1 POP DUP2 DUP2 SUB PUSH1 0x0 DUP4 ADD MSTORE PUSH2 0xF95 DUP2 PUSH2 0xF59 JUMP JUMPDEST SWAP1 POP SWAP2 SWAP1 POP JUMP JUMPDEST PUSH32 0x566572646963742063616E6E6F7420626520656D707479000000000000000000 PUSH1 0x0 DUP3 ADD MSTORE POP JUMP JUMPDEST PUSH1 0x0 PUSH2 0xFD2 PUSH1 0x17 DUP4 PUSH2 0xC18 JUMP JUMPDEST SWAP2 POP PUSH2 0xFDD DUP3 PUSH2 0xF9C JUMP JUMPDEST PUSH1 0x20 DUP3 ADD SWAP1 POP SWAP2 SWAP1 POP JUMP JUMPDEST PUSH1 0x0 PUSH1 0x20 DUP3 ADD SWAP1 POP DUP2 DUP2 SUB PUSH1 0x0 DUP4 ADD MSTORE PUSH2 0x1001 DUP2 PUSH2 0xFC5 JUMP JUMPDEST SWAP1 POP SWAP2 SWAP1 POP JUMP JUMPDEST PUSH32 0x5665726469637420746F6F206C6F6E6700000000000000000000000000000000 PUSH1 0x0 DUP3 ADD MSTORE POP JUMP JUMPDEST PUSH1 0x0 PUSH2 0x103E PUSH1 0x10 DUP4 PUSH2 0xC18 JUMP JUMPDEST SWAP2 POP PUSH2 0x1049 DUP3 PUSH2 0x1008 JUMP JUMPDEST PUSH1 0x20 DUP3 ADD SWAP1 POP SWAP2 SWAP1 POP JUMP JUMPDEST PUSH1 0x0 PUSH1 0x20 DUP3 ADD SWAP1 POP DUP2 DUP2 SUB PUSH1 0x0 DUP4 ADD MSTORE PUSH2 0x106D DUP2 PUSH2 0x1031 JUMP JUMPDEST SWAP1 POP SWAP2 SWAP1 POP JUMP JUMPDEST PUSH32 0x4E487B7100000000000000000000000000000000000000000000000000000000 PUSH1 0x0 MSTORE PUSH1 0x41 PUSH1 0x4 MSTORE PUSH1 0x24 PUSH1 0x0 REVERT JUMPDEST PUSH1 0x0 DUP2 SWAP1 POP DUP2 PUSH1 0x0 MSTORE PUSH1 0x20 PUSH1 0x0 KECCAK256 SWAP1 POP SWAP2 SWAP1 POP JUMP JUMPDEST PUSH1 0x0 PUSH1 0x20 PUSH1 0x1F DUP4 ADD DIV SWAP1 POP SWAP2 SWAP1 POP JUMP JUMPDEST PUSH1 0x0 DUP3 DUP3 SHL SWAP1 POP SWAP3 SWAP2 POP POP JUMP JUMPDEST PUSH1 0x0 PUSH1 0x8 DUP4 MUL PUSH2 0x1105 PUSH32 0xFFFFFFFFFFFFFFFFFFFFFFFFFFFFFFFFFFFFFFFFFFFFFFFFFFFFFFFFFFFFFFFF DUP3 PUSH2 0x10C8 JUMP JUMPDEST PUSH2 0x110F DUP7 DUP4 PUSH2 0x10C8 JUMP JUMPDEST SWAP6 POP DUP1 NOT DUP5 AND SWAP4 POP DUP1 DUP7 AND DUP5 OR SWAP3 POP POP POP SWAP4 SWAP3 POP POP POP JUMP JUMPDEST PUSH1 0x0 DUP2 SWAP1 POP SWAP2 SWAP1 POP JUMP JUMPDEST PUSH1 0x0 PUSH2 0x114C PUSH2 0x1147 PUSH2 0x1142 DUP5 PUSH2 0x844 JUMP JUMPDEST PUSH2 0x1127 JUMP JUMPDEST PUSH2 0x844 JUMP JUMPDEST SWAP1 POP SWAP2 SWAP1 POP JUMP JUMPDEST PUSH1 0x0 DUP2 SWAP1 POP SWAP2 SWAP1 POP JUMP JUMPDEST PUSH2 0x1166 DUP4 PUSH2 0x1131 JUMP JUMPDEST PUSH2 0x117A PUSH2 0x1172 DUP3 PUSH2 0x1153 JUMP JUMPDEST DUP5 DUP5 SLOAD PUSH2 0x10D5 JUMP JUMPDEST DUP3 SSTORE POP POP POP POP JUMP JUMPDEST PUSH1 0x0 SWAP1 JUMP JUMPDEST PUSH2 0x118F PUSH2 0x1182 JUMP JUMPDEST PUSH2 0x119A DUP2 DUP5 DUP5 PUSH2 0x115D JUMP JUMPDEST POP POP POP JUMP JUMPDEST JUMPDEST DUP2 DUP2 LT ISZERO PUSH2 0x11BE JUMPI PUSH2 0x11B3 PUSH1 0x0 DUP3 PUSH2 0x1187 JUMP JUMPDEST PUSH1 0x1 DUP2 ADD SWAP1 POP PUSH2 0x11A0 JUMP JUMPDEST POP POP JUMP JUMPDEST PUSH1 0x1F DUP3 GT ISZERO PUSH2 0x1203 JUMPI PUSH2 0x11D4 DUP2 PUSH2 0x10A3 JUMP JUMPDEST PUSH2 0x11DD DUP5 PUSH2 0x10B8 JUMP JUMPDEST DUP2 ADD PUSH1 0x20 DUP6 LT ISZERO PUSH2 0x11EC JUMPI DUP2 SWAP1 POP JUMPDEST PUSH2 0x1200 PUSH2 0x11F8 DUP6 PUSH2 0x10B8 JUMP JUMPDEST DUP4 ADD DUP3 PUSH2 0x119F JUMP JUMPDEST POP POP JUMPDEST POP POP POP JUMP JUMPDEST PUSH1 0x0 DUP3 DUP3 SHR SWAP1 POP SWAP3 SWAP2 POP POP JUMP JUMPDEST PUSH1 0x0 PUSH2 0x1226 PUSH1 0x0 NOT DUP5 PUSH1 0x8 MUL PUSH2 0x1208 JUMP JUMPDEST NOT DUP1 DUP4 AND SWAP2 POP POP SWAP3 SWAP2 POP POP JUMP JUMPDEST PUSH1 0x0 PUSH2 0x123F DUP4 DUP4 PUSH2 0x1215 JUMP JUMPDEST SWAP2 POP DUP3 PUSH1 0x2 MUL DUP3 OR SWAP1 POP SWAP3 SWAP2 POP POP JUMP JUMPDEST PUSH2 0x1258 DUP3 PUSH2 0x8DC JUMP JUMPDEST PUSH8 0xFFFFFFFFFFFFFFFF DUP2 GT ISZERO PUSH2 0x1271 JUMPI PUSH2 0x1270 PUSH2 0x1074 JUMP JUMPDEST JUMPDEST PUSH2 0x127B DUP3 SLOAD PUSH2 0xDBB JUMP JUMPDEST PUSH2 0x1286 DUP3 DUP3 DUP6 PUSH2 0x11C2 JUMP JUMPDEST PUSH1 0x0 PUSH1 0x20 SWAP1 POP PUSH1 0x1F DUP4 GT PUSH1 0x1 DUP2 EQ PUSH2 0x12B9 JUMPI PUSH1 0x0 DUP5 ISZERO PUSH2 0x12A7 JUMPI DUP3 DUP8 ADD MLOAD SWAP1 POP JUMPDEST PUSH2 0x12B1 DUP6 DUP3 PUSH2 0x1233 JUMP JUMPDEST DUP7 SSTORE POP PUSH2 0x1319 JUMP JUMPDEST PUSH1 0x1F NOT DUP5 AND PUSH2 0x12C7 DUP7 PUSH2 0x10A3 JUMP JUMPDEST PUSH1 0x0 JUMPDEST DUP3 DUP2 LT ISZERO PUSH2 0x12EF JUMPI DUP5 DUP10 ADD MLOAD DUP3 SSTORE PUSH1 0x1 DUP3 ADD SWAP2 POP PUSH1 0x20 DUP6 ADD SWAP5 POP PUSH1 0x20 DUP2 ADD SWAP1 POP PUSH2 0x12CA JUMP JUMPDEST DUP7 DUP4 LT ISZERO PUSH2 0x130C JUMPI DUP5 DUP10 ADD MLOAD PUSH2 0x1308 PUSH1 0x1F DUP10 AND DUP3 PUSH2 0x1215 JUMP JUMPDEST DUP4 SSTORE POP JUMPDEST PUSH1 0x1 PUSH1 0x2 DUP9 MUL ADD DUP9 SSTORE POP POP POP JUMPDEST POP POP POP POP POP POP JUMP JUMPDEST DUP3 DUP2 DUP4 CALLDATACOPY PUSH1 0x0 DUP4 DUP4 ADD MSTORE POP POP POP JUMP JUMPDEST PUSH1 0x0 PUSH2 0x133C DUP4 DUP6 PUSH2 0xC18 JUMP JUMPDEST SWAP4 POP PUSH2 0x1349 DUP4 DUP6 DUP5 PUSH2 0x1321 JUMP JUMPDEST PUSH2 0x1352 DUP4 PUSH2 0x922 JUMP JUMPDEST DUP5 ADD SWAP1 POP SWAP4 SWAP3 POP POP POP JUMP JUMPDEST PUSH1 0x0 PUSH1 0x80 DUP3 ADD SWAP1 POP PUSH2 0x1372 PUSH1 0x0 DUP4 ADD DUP9 PUSH2 0xBFA JUMP JUMPDEST PUSH2 0x137F PUSH1 0x20 DUP4 ADD DUP8 PUSH2 0xC09 JUMP JUMPDEST DUP2 DUP2 SUB PUSH1 0x40 DUP4 ADD MSTORE PUSH2 0x1392 DUP2 DUP6 DUP8 PUSH2 0x1330 JUMP JUMPDEST SWAP1 POP PUSH2 0x13A1 PUSH1 0x60 DUP4 ADD DUP5 PUSH2 0xC71 JUMP JUMPDEST SWAP7 SWAP6 POP POP POP POP POP POP JUMP JUMPDEST PUSH32 0x4E487B7100000000000000000000000000000000000000000000000000000000 PUSH1 0x0 MSTORE PUSH1 0x11 PUSH1 0x4 MSTORE PUSH1 0x24 PUSH1 0x0 REVERT JUMPDEST PUSH1 0x0 PUSH2 0x13E5 DUP3 PUSH2 0x844 JUMP JUMPDEST SWAP2 POP PUSH32 0xFFFFFFFFFFFFFFFFFFFFFFFFFFFFFFFFFFFFFFFFFFFFFFFFFFFFFFFFFFFFFFFF DUP3 SUB PUSH2 0x1417 JUMPI PUSH2 0x1416 PUSH2 0x13AB JUMP JUMPDEST JUMPDEST PUSH1 0x1 DUP3 ADD SWAP1 POP SWAP2 SWAP1 POP JUMP INVALID LOG2 PUSH5 0x6970667358 0x22 SLT KECCAK256 TSTORE BLOBHASH PUSH30 0x8F8DB6026465AD5DF4D88225FBD4BDB7562D96C127F737B860EB63324364 PUSH20 0x6F6C634300081800330000000000000000000000 "
        },
        "methodIdentifiers": {
          "getVerdict(uint256)": "33f3e74b",
          "saveVerdict(bytes32,uint8,uint8,uint8,uint8,string)": "395688d8",
          "verdictCount()": "64a8cbe7",
          "verdicts(uint256)": "3e0204fe"
        }
      }
    }
  }
}